S00D0000626C696E6B2E7372656307
S315080000000020002015020008110200080F0200084F
S315080000100F0200080F0200080F0200080000000087
S3150800002000000000000000000000000011020008A7
S315080000301102000800000000110200081102000861
S315080000400F0200080F0200080F0200080F0200083E
S315080000500F0200080F0200080F0200080F0200082E
S315080000600F0200080F0200080F0200080F0200081E
S315080000700F0200080F0200080F0200080F0200080E
S315080000800F0200080F0200080F0200080F020008FE
S315080000900F0200080F0200080F0200080F020008EE
S315080000A00F0200080F0200080F0200080F020008DE
S315080000B00F0200080F0200080F0200080F020008CE
S315080000C00F0200080F0200080F0200080F020008BE
S315080000D00F0200080F0200080F0200080F020008AE
S315080000E00F0200080F0200080F0200080F0200089E
S315080000F00F0200080F0200080F0200080F0200088E
S315080001000F0200080F0200080F0200080F0200087D
S315080001100F0200080F0200080F0200080F0200086D
S315080001200F0200080F0200080F0200080F0200085D
S315080001300F0200080F0200080F0200080F0200084D
S315080001400F0200080F0200080F0200080F0200083D
S3150800015008B50B48102100F051F80A480221002280
S315080001604FF4807300F012F806484FF4807100F0DF
S315080001704AF8002300BF044A01339342FAD1F3E751
S31508000180181002400010014000350C002DE9F04718
S31508000190066800244568A44643FA0CF717F0010FD1
S315080001A021D01FFA8CF8B8F1070F02D82746B246B5
S315080001B003E0A4F12007BFB2AA464FF00F0909FAD7
S315080001C007F92AEA090A07F1020902FA09F911FAEE
S315080001D007F749EA070747EA0A07B8F1080F28BFE9
S315080001E03D4638BF3E460CF1010C0434BCF1100FF5
S315080001F0A4B2D1D106604560BDE8F087036841EA3C
S31508000200030303607047C3684B40C3607047FEE74B
S3150800021070470000094A0A4B03E052F8041B43F8EA
S31508000220041B08498B42F8D302E0002243F8042B4A
S31508000230054A9342F9D3FFF78BBF00BF4C0200086B
S3110800024000000020000000200000002044
S70508000215DB
