S00D000075736172742E73726563E8
S31508000000002000201D0500081B050008190500082A
S315080000101905000819050008190500080000000060
S315080000200000000000000000000000001B0500089A
S315080000301B050008000000001B0500081B0500083A
S31508000040190500081905000819050008190500080A
S3150800005019050008190500081905000819050008FA
S3150800006019050008190500081905000819050008EA
S3150800007019050008190500081905000819050008DA
S3150800008019050008190500081905000819050008CA
S3150800009019050008190500081905000819050008BA
S315080000A019050008190500081905000819050008AA
S315080000B0190500081905000819050008190500089A
S315080000C0190500081905000819050008190500088A
S315080000D0190500081905000819050008190500087A
S315080000E0190500081905000819050008190500086A
S315080000F0190500081905000819050008190500085A
S315080001001905000819050008190500081905000849
S315080001101905000819050008190500081905000839
S315080001201905000819050008190500081905000829
S315080001301905000819050008190500081905000819
S315080001401905000819050008190500081905000809
S31508000150002307E0002200BF41F2040101328A426F
S31508000160F9D101338342F5DB704710B50446E1B295
S31508000170024800F0C6F9204610BD00BF003801400D
S3150800018038B50546002401E0FFF7EFFF285D013486
S315080001900028F9D138BD08B500F042F921481021E8
S315080001A000F0ECF81F48042100F0E8F81D484FF469
S315080001B0804100F0E3F81C4802210022472300F0A2
S315080001C03DF81A48032102224FF4007300F036F86E
S315080001D0174B40F271221A601648082100F062F99E
S315080001E01448002100F067F91248082100F06FF959
S315080001F01048002100F065F900210E4800F06DF95D
S315080002000C4800F070F90848012100F047F9402130
S31508000210054800F043F90848FFF7B2FF0520FFF745
S3150800022097FFF4E71810024000100140000801404B
S315080002300838014000380140680500082DE9F047F4
S31508000240066800244568A44643FA0CF717F0010F20
S3150800025021D01FFA8CF8B8F1070F02D82746B24604
S3150800026003E0A4F12007BFB2AA464FF00F0909FA26
S3150800027007F92AEA090A07F1020902FA09F911FA3D
S3150800028007F749EA070747EA0A07B8F1080F28BF38
S315080002903D4638BF3E460CF1010C0434BCF1100F44
S315080002A0A4B2D1D106604560BDE8F08706282ED8ED
S315080002B0DFE800F0040A10161C222800144B1B68FD
S315080002C013F0007FFAD07047114B1B6813F0006FCC
S315080002D0FAD070470E4B1B6813F0005FFAD07047D0
S315080002E00B4B1B6813F4003FFAD07047084B1B688A
S315080002F013F0020FFAD07047064B1B6813F0020F73
S31508000300FAD07047044B1B6813F0020FFAD07047F7
S31508000310001002402010024024100240062826D869
S31508000320DFE800F004090E13181A2000104B1A68AB
S3150800033042F0807214E00E4B1A6842F080620FE0B9
S315080003400B4B1A6842F080520AE0094B1A6842F4CD
S31508000350803205E0064B00E0064B1A6842F00102BF
S315080003601A607047044B1A6842F001021A60704717
S31508000370001002402010024024100240036841EA9F
S315080003800303036070470000034B1A6822F0030258
S3150800039040EA02021A60704704100240034B1A68CA
S315080003A022F4701242EA80421A6070470410024032
S315080003B0034B1A6822F4803242EA00421A607047F8
S315080003C004100240034B1A6822F4003242EA404203
S315080003D01A60704704100240034B1A6822F4404220
S315080003E042EA80321A60704704100240034B1A68CA
S315080003F022F4E06242EA00221A60704704100240C2
S31508000400024B1A6822F0F0021A6070470410024084
S31508000410024B1A6822F460521A60704704100240B0
S3150800042008B50420FFF77AFF0420FFF73FFF0020F6
S31508000430FFF7AAFF0320FFF771FF0320FFF736FF38
S315080004400120FFF7A1FFFFF7DBFF0020FFF7C4FF3E
S315080004500020FFF7CBFFFFF7DBFF002000F07AF85C
S315080004600120FFF79BFF0120FFF7A2FF0020FFF7FF
S31508000470A9FF0020FFF752FF0020FFF717FF022011
S31508000480FFF782FF024B034A1360034A136008BD55
S3150800049000366E010000002004000020C3684B40AF
S315080004A0C3607047C36808290CBF23F4805343F41C
S315080004B08053C3607047036923F440530B430361B9
S315080004C07047C36823F4C0630B43C3607047C368AF
S315080004D023F00C030B43C3607047436923F440734E
S315080004E00B4343617047C36843F40053C3607047C6
S315080004F0C905C90D41607047036813F0800FFBD02A
S31508000500704770B504460D46FFF7F6FF20462946A4
S31508000510BDE87040FFF7ECBFFEE77047094A0A4B93
S3150800052003E052F8041B43F8041B08498B42F8D32E
S3150800053002E0002243F8042B054A9342F9D3FFF759
S315080005402ABE00BF7C050008000000200800002025
S3150800055008000020034B1A6822F0070240EA02024C
S315080005601A6070470020024061686F6A2C20746523
S3110800057073742075736172740D0A000024
S30D0800057C00127A0000127A0051
S7050800051DD0
