S00B00007370692E73726563CD
S315080020000020002079270008772700087527000890
S3150800201075270008752700087527000800000000C6
S3150800202000000000000000000000000077270008FC
S3150800203077270008000000007727000877270008A0
S3150800204075270008752700087527000875270008F2
S3150800205075270008752700087527000875270008E2
S3150800206075270008752700087527000875270008D2
S3150800207075270008752700087527000875270008C2
S3150800208075270008752700087527000875270008B2
S3150800209075270008752700087527000875270008A2
S315080020A07527000875270008752700087527000892
S315080020B07527000875270008752700087527000882
S315080020C07527000875270008752700087527000872
S315080020D07527000875270008752700087527000862
S315080020E07527000875270008752700087527000852
S315080020F07527000875270008752700087527000842
S315080021007527000875270008752700087527000831
S315080021107527000875270008752700087527000821
S315080021207527000875270008752700087527000811
S315080021307527000875270008752700087527000801
S3150800214075270008752700087527000875270008F1
S31508002150002307E0002200BF41F2040101328A424F
S31508002160F9D101338342F5DB70470128034802D1D0
S31508002170402100F061BA402100F060BA0010014029
S31508002180012804484FF4805101D100F055BA00F0F7
S3150800219055BA00BF000C014010B50446E1B202482A
S315080021A000F0DDFA204610BD0038014038B5054676
S315080021B0002401E0FFF7F0FF285D01340028F9D17B
S315080021C038BD37B500F0FAF91C21754800F09AF9C0
S315080021D00121734800F096F971484FF4804100F0E8
S315080021E091F96F484FF4805100F08CF900220723CB
S315080021F002216C4800F0E6F801216A4800F01EFA50
S315080022000321022268484FF4007300F0DBF8674B9D
S3150800221040F271221A600821654800F071FA00211F
S31508002220634800F076FA0C21614800F07EFA002136
S315080022305F4800F074FA00215D4800F07CFA5C48BB
S3150800224000F07FFA0221574800F0F8F903215948AF
S3150800225002224FF4304300F0B5F800215548012218
S315080022604FF4804300F0AEF84E4800210122802347
S3150800227000F0A8F80221002260234A4800F0A2F8DC
S315080022804D4800F009FA0023282102220093019301
S315080022904948013300F0D9F9474800F0F3F94648B0
S315080022A000F0F5F9444800F0E2F93E48042100F050
S315080022B0C5F90020FFF764FF0020FFF756FF0A2044
S315080022C0FFF746FF0120FFF75BFF0120FFF74DFFF1
S315080022D00520FFF73DFF0020FFF747FF0520FFF722
S315080022E037FF0120FFF741FF1320FFF731FF2021B9
S315080022F02C4800F0A1F90020FFF742FF0120FFF764
S3150800230027FF2D48062100F0B7F92B48A02100F039
S31508002310B3F97820FFF71CFF00241CE0FF212648AC
S3150800232000F0AAF9FF21244800F0A6F9013501209A
S31508002330FFF70EFF402DF1D1FF211F4800F09CF951
S3150800234000211D4800F098F901340120FFF700FF2D
S31508002350B4F5A06F01D00025E0E7184B1B6813F011
S31508002360800FFAD00120FFF70BFF40F6C410FFF7E5
S31508002370EFFE0020FFF704FF4FF4FA70FFF7E8FEC0
S315080023802021084800F05AF90221064800F059F9B8
S315080023900B48FFF70BFF4FF47A70FFF7D9FE88E773
S315080023A0181002400010014000080140083801409A
S315080023B000380140000C0140003001400808014087
S315080023C0C42700082DE9F047066800244568A44696
S315080023D043FA0CF717F0010F21D01FFA8CF8B8F161
S315080023E0070F02D82746B24603E0A4F12007BFB27A
S315080023F0AA464FF00F0909FA07F92AEA090A07F166
S31508002400020902FA09F911FA07F749EA070747EA3A
S315080024100A07B8F1080F28BF3D4638BF3E460CF1FB
S31508002420010C0434BCF1100FA4B2D1D1066045608A
S31508002430BDE8F08706282ED8DFE800F0040A101653
S315080024401C222800144B1B6813F0007FFAD0704733
S31508002450114B1B6813F0006FFAD070470E4B1B68C0
S3150800246013F0005FFAD070470B4B1B6813F4003F5C
S31508002470FAD07047084B1B6813F0020FFAD0704762
S31508002480064B1B6813F0020FFAD07047044B1B6803
S3150800249013F0020FFAD070470010024020100240D5
S315080024A024100240062826D8DFE800F004090E1397
S315080024B0181A2000104B1A6842F0807214E00E4B6E
S315080024C01A6842F080620FE00B4B1A6842F080529D
S315080024D00AE0094B1A6842F4803205E0064B00E030
S315080024E0064B1A6842F001021A607047044B1A68D4
S315080024F042F001021A6070470010024020100240A4
S3150800250024100240036841EA030303607047036826
S3150800251041EA030303607047036823EA0103036083
S3150800252070470000034B1A6822F0030240EA0202D1
S315080025301A60704704100240034B1A6822F470129E
S3150800254042EA80421A60704704100240034B1A6838
S3150800255022F4803242EA00421A60704704100240B0
S31508002560034B1A6822F4003242EA40421A60704766
S3150800257004100240034B1A6822F4404242EA8032B1
S315080025801A60704704100240034B1A6822F4E0628E
S3150800259042EA00221A60704704100240024B1A6889
S315080025A022F0F0021A60704704100240024B1A68C3
S315080025B022F460521A6070470410024008B50420DD
S315080025C0FFF770FF0420FFF735FF0020FFF7AAFF8B
S315080025D00320FFF767FF0320FFF72CFF0120FFF713
S315080025E0A1FFFFF7DBFF0020FFF7C4FF0020FFF77E
S315080025F0CBFFFFF7DBFF002000F0DAF80120FFF73A
S315080026009BFF0120FFF7A2FF0020FFF7A9FF00208C
S31508002610FFF748FF0020FFF70DFF0220FFF782FFB4
S31508002620024B034A1360034A136008BD00366E0165
S3150800263000000020040000200161704709040161C0
S315080026407047C3684B40C360704710B5046841F0D3
S315080026500401114304F4415C029A41EA0C0C4CEA69
S3150800266003031343039A13430360002010BD036852
S3150800267043F0400303607047836813F0020FFBD0F2
S31508002680C1607047036843F40073036070470368CA
S3150800269043F4807303607047144B10B5984218D002
S315080026A0134B984203D0134B98421ED108E01248A8
S315080026B04FF48051FFF72BFF0F484FF4805110E07D
S315080026C00E484FF48041FFF722FF0C484FF4804133
S315080026D007E00A484FF40041FFF719FF07484FF48F
S315080026E00041BDE81040FFF717BF10BD003C004091
S315080026F000300140003800400C1002401010024023
S31508002700C36808290CBF23F4805343F48053C3607D
S315080027107047036923F440530B4303617047C3684A
S3150800272023F4C0630B43C3607047C36823F00C03EC
S315080027300B43C3607047436923F440730B434361FB
S315080027407047C36843F40053C3607047C905C90D91
S3150800275041607047036813F0800FFBD0704770B56F
S3150800276004460D46FFF7F6FF20462946BDE87040A9
S31508002770FFF7ECBFFEE77047094A0A4B03E052F839
S31508002780041B43F8041B08498B42F8D302E00022D5
S3150800279043F8042B054A9342F9D3FFF712BD00BF4D
S315080027A0D0270008000000200800002008000020AC
S315080027B0034B1A6822F0070240EA02021A607047C1
S315080027C00020024054657374206D6F64650D0A001D
S30D080027D000127A0000127A00DB
S7050800277952
