S00B00007370692E73726563CD
S3150800200000200020912700088F2700088D27000848
S315080020108D2700088D2700088D270008000000007E
S315080020200000000000000000000000008F270008E4
S315080020308F270008000000008F2700088F27000858
S315080020408D2700088D2700088D2700088D27000892
S315080020508D2700088D2700088D2700088D27000882
S315080020608D2700088D2700088D2700088D27000872
S315080020708D2700088D2700088D2700088D27000862
S315080020808D2700088D2700088D2700088D27000852
S315080020908D2700088D2700088D2700088D27000842
S315080020A08D2700088D2700088D2700088D27000832
S315080020B08D2700088D2700088D2700088D27000822
S315080020C08D2700088D2700088D2700088D27000812
S315080020D08D2700088D2700088D2700088D27000802
S315080020E08D2700088D2700088D2700088D270008F2
S315080020F08D2700088D2700088D2700088D270008E2
S315080021008D2700088D2700088D2700088D270008D1
S315080021108D2700088D2700088D2700088D270008C1
S315080021208D2700088D2700088D2700088D270008B1
S315080021308D2700088D2700088D2700088D270008A1
S315080021408D2700088D2700088D2700088D27000891
S31508002150002307E0002200BF41F2243101328A42FF
S31508002160F9D101338342F5DB70470128034802D1D0
S31508002170402100F079BA402100F078BA00100140F9
S315080021800128034801D100F09FBA00F0A2BA00BFA7
S31508002190003800402DE9F34100F028FA1C21834855
S315080021A000F0C8F982484FF4804100F0C3F90022D4
S315080021B0072302217F4800F01DF907217D4800F01A
S315080021C053FA01217B4800F051FA0221794800F0C0
S315080021D04DFA0321022278484FF4304300F00AF9F9
S315080021E00021012274484FF4804300F003F90021CE
S315080021F0012280236F4800F0FDF8022100226023A7
S315080022006C48002400F0F6F86C4800F077FA22468D
S315080022102346202169480094019400F02EFA674865
S3150800222000F05CFA654800F04AFA644800F060FA83
S31508002230624800F049FA614800F055FA5F4800F034
S3150800224039FA5E4800F02BFA04215A4800F00EFAD3
S315080022506021584800F00AFA2046FFF791FF204609
S31508002260FFF783FF2021534800F0FEF90520FFF70A
S315080022706FFF0120FFF784FF0B20FFF769FF01209E
S31508002280FFF773FF1320FFF763FF2046FFF778FF7A
S315080022904B4B1A6882EA821522F00102920442EA3E
S315080022A055355A681D6082EA820622F007029200B6
S315080022B042EAD6669A6886EA050582EA423022F03C
S315080022C00F02D20142EA5050DA68986082EAC201E7
S315080022D022F07F02520342EA113185EA00005E606D
S315080022E0D960484000F0BCFB0022364B00F0ACFC3D
S315080022F0A04214BFFF2525463220FFF729FF2F48A5
S31508002300062100F0D1F92D48A02100F0CDF90520CD
S31508002310FFF71EFF264629E02848294600F0C4F99B
S315080023202648294600F0C0F9042F07DDFF2D02D004
S31508002330FF25002703E000252F4600E0013708F1B6
S315080023400108B8F1400FE7D1502E07DDFF2D02D165
S31508002350FF3D2E4603E0FF25002600E00136062055
S315080023600134FFF7F5FEB4F5A06F03D04FF000086F
S315080023704746D1E70120FFF703FF41F28830FFF710
S31508002380E7FE4FF4FA70FFF7E3FE0020FFF7EDFED5
S315080023900848202100F06AF90648022100F069F988
S315080023A04FF47A70FFF7D4FEF6E700BF1810024024
S315080023B01C10024000100140000C0140003800408B
S315080023C0000000200000E03F10B50446E1B20248D4
S315080023D000F0D1F9204610BD0038014038B5054651
S315080023E0002401E0FFF7F0FF285D01340028F9D149
S315080023F038BD00BF2DE9F047066800244568A446A5
S3150800240043FA0CF717F0010F21D01FFA8CF8B8F130
S31508002410070F02D82746B24603E0A4F12007BFB249
S31508002420AA464FF00F0909FA07F92AEA090A07F135
S31508002430020902FA09F911FA07F749EA070747EA0A
S315080024400A07B8F1080F28BF3D4638BF3E460CF1CB
S31508002450010C0434BCF1100FA4B2D1D1066045605A
S31508002460BDE8F08706282ED8DFE800F0040A101623
S315080024701C222800144B1B6813F0007FFAD0704703
S31508002480114B1B6813F0006FFAD070470E4B1B6890
S3150800249013F0005FFAD070470B4B1B6813F4003F2C
S315080024A0FAD07047084B1B6813F0020FFAD0704732
S315080024B0064B1B6813F0020FFAD07047044B1B68D3
S315080024C013F0020FFAD070470010024020100240A5
S315080024D024100240062826D8DFE800F004090E1367
S315080024E0181A2000104B1A6842F0807214E00E4B3E
S315080024F01A6842F080620FE00B4B1A6842F080526D
S315080025000AE0094B1A6842F4803205E0064B00E0FF
S31508002510064B1A6842F001021A607047044B1A68A3
S3150800252042F001021A607047001002402010024073
S3150800253024100240036841EA0303036070470368F6
S3150800254041EA030303607047036823EA0103036053
S3150800255070470000034B1A6822F0030240EA0202A1
S315080025601A60704704100240034B1A6822F470126E
S3150800257042EA80421A60704704100240034B1A6808
S3150800258022F4803242EA00421A6070470410024080
S31508002590034B1A6822F4003242EA40421A60704736
S315080025A004100240034B1A6822F4404242EA803281
S315080025B01A60704704100240034B1A6822F4E0625E
S315080025C042EA00221A60704704100240024B1A6859
S315080025D022F0F0021A60704704100240024B1A6893
S315080025E022F460521A6070470410024008B50420AD
S315080025F0FFF770FF0420FFF735FF0020FFF7AAFF5B
S315080026000320FFF767FF0320FFF72CFF0120FFF7E2
S31508002610A1FFFFF7DBFF0020FFF7C4FF0020FFF74D
S31508002620CBFFFFF7DBFF002000F0CEF80120FFF715
S315080026309BFF0120FFF7A2FF0020FFF7A9FF00205C
S31508002640FFF748FF0020FFF70DFF0220FFF782FF84
S31508002650024B034A1360034A136008BD00366E0135
S315080026601000002014000020016170470904016170
S315080026707047C3684B40C360704710B5046841F0A3
S315080026800401114304F4415C029A41EA0C0C4CEA39
S3150800269003031343039A13430360002010BD036822
S315080026A043F0400303607047836813F0020FFBD0C2
S315080026B0C1607047036823F40053036070470368DA
S315080026C043F4007303607047036843F48073036040
S315080026D07047036823F4807303607047036843F008
S315080026E0040303607047436823F020034360704780
S315080026F0436843F00403436070470000144B10B569
S31508002700984218D0134B984203D0134B98421ED1C7
S3150800271008E012484FF48051FFF711FF0F484FF4B5
S31508002720805110E00E484FF48041FFF708FF0C482F
S315080027304FF4804107E00A484FF40041FFF7FFFED7
S3150800274007484FF40041BDE81040FFF7FDBE10BD35
S31508002750003C004000300140003800400C100240A8
S3150800276010100240C905C90D41607047036813F08F
S31508002770800FFBD0704770B504460D46FFF7F6FF8D
S3150800278020462946BDE87040FFF7ECBFFEE77047D4
S31508002790094A0A4B03E052F8041B43F8041B08498C
S315080027A08B42F8D302E0002243F8042B054A9342F1
S315080027B0F9D3FFF7EFBC00BF5C2C0008000000202F
S315080027C01800002018000020034B1A6822F00702A0
S315080027D040EA02021A6070470020024081F0004178
S315080027E002E000BF83F0004330B54FEA41044FEAE8
S315080027F0430594EA050F08BF90EA020F1FBF54EA83
S31508002800000C55EA020C7FEA645C7FEA655C00F01E
S31508002810E2804FEA5454D4EB5555B8BF6D420CDDEF
S315080028202C4480EA020281EA030382EA000083EA72
S31508002830010180EA020281EA0303362D88BF30BD12
S3150800284011F0004F4FEA01314FF4801C4CEA113168
S3150800285002D0404261EB410113F0004F4FEA0333C7
S315080028604CEA133302D0524263EB430394EA050F52
S3150800287000F0A780A4F10104D5F1200E0DDB02FAC1
S315080028800EFC22FA05F2801841F1000103FA0EF255
S31508002890801843FA05F359410EE0A5F120050EF11B
S315080028A0200E012A03FA0EFC28BF4CF0020C43FA4C
S315080028B005F3C01851EBE37101F0004507D54FF059
S315080028C0000EDCF1000C7EEB00006EEB0101B1F5A9
S315080028D0801F1BD3B1F5001F0CD349085FEA3000EF
S315080028E04FEA3C0C04F101044FEA445212F5800FFA
S315080028F080F09A80BCF1004F08BF5FEA500C50F197
S31508002900000041EB045141EA050130BD5FEA4C0C79
S31508002910404141EB010111F4801FA4F10104E9D102
S3150800292091F0000F04BF01460020B1FA81F308BFF9
S315080029302033A3F10B03B3F120020CDA0C3208DDC5
S3150800294002F1140CC2F10C0201FA0CF021FA02F1A0
S315080029500CE002F11402D8BFC2F1200C01FA02F110
S3150800296020FA0CFCDCBF41EA0C019040E41AA2BF35
S3150800297001EB0451294330BD6FEA04041F3C1CDAFD
S315080029800C340EDC04F11404C4F1200220FA04F01D
S3150800299001FA02F340EA030021FA04F345EA0301C7
S315080029A030BDC4F10C04C4F1200220FA02F001FA89
S315080029B004F340EA0300294630BD21FA04F029460B
S315080029C030BD94F0000F83F4801306BF81F48011A4
S315080029D00134013D4EE77FEA645C18BF7FEA655C17
S315080029E029D094EA050F08BF90EA020F05D054EAE9
S315080029F0000C04BF1946104630BD91EA030F1EBFEE
S31508002A000021002030BD5FEA545C05D140004941F1
S31508002A1028BF41F0004130BD14F580043CBF01F5E4
S31508002A20801130BD01F0004545F0FE4141F47001CA
S31508002A304FF0000030BD7FEA645C1ABF19461046A5
S31508002A407FEA655C1CBF0B46024650EA013406BFA6
S31508002A5052EA033591EA030F41F4002130BD00BF65
S31508002A6090F0000F04BF0021704730B54FF4806422
S31508002A7004F132044FF000054FF0000150E700BFA3
S31508002A8090F0000F04BF0021704730B54FF4806402
S31508002A9004F1320410F0004548BF40424FF00001EF
S31508002AA03EE700BF42004FEAE2014FEA31014FEA32
S31508002AB002701FBF12F07F4393F07F4F81F0605181
S31508002AC0704792F0000F14BF93F07F4F704730B5F0
S31508002AD04FF4607401F0004521F0004120E700BF83
S31508002AE050EA010208BF704730B54FF000050AE00A
S31508002AF050EA010208BF704730B511F0004502D50B
S31508002B00404261EB41014FF4806404F132045FEA0C
S31508002B10915C3FF4DCAE4FF003025FEADC0C18BFB1
S31508002B2003325FEADC0C18BF033202EBDC02C2F1A7
S31508002B30200300FA03FC20FA02F001FA03FE40EA39
S31508002B400E0021FA02F11444C1E600BF4FF0FF3C23
S31508002B5006E000BF4FF0010C02E000BF4FF0010C89
S31508002B604DF804CD4FEA410C7FEA6C5C4FEA430C02
S31508002B7018BF7FEA6C5C1BD001B050EA410C0CBF51
S31508002B8052EA430C91EA030F02BF90EA020F0020B3
S31508002B90704710F1000F91EA030F58BF994208BF1A
S31508002BA090422CBFD8176FEAE37040F001007047D7
S31508002BB04FEA410C7FEA6C5C02D150EA013C07D12E
S31508002BC04FEA430C7FEA6C5CD6D152EA033CD3D079
S31508002BD05DF8040B704700BF8446104662468C4673
S31508002BE01946634600E000BF01B5FFF7B7FF0028A6
S31508002BF048BF10F1000F01BD4DF808EDFFF7F4FFCF
S31508002C000CBF012000205DF808FB00BF4DF808ED59
S31508002C10FFF7EAFF34BF012000205DF808FB00BF7C
S31508002C204DF808EDFFF7E0FF94BF012000205DF89E
S31508002C3008FB00BF4DF808EDFFF7CEFF94BF012053
S31508002C4000205DF808FB00BF4DF808EDFFF7C4FF4C
S31108002C5034BF012000205DF808FB00BF1F
S31508002C5C39300000393000003930000039300000B6
S30D08002C6C00127A0000127A003A
S705080027913A
