:020000040800F2
:1020000000200020B5260008B3260008B1260008ED
:10201000B1260008B1260008B12600080000000023
:10202000000000000000000000000000B3260008CF
:10203000B326000800000000B3260008B3260008FD
:10204000B1260008B1260008B1260008B126000814
:10205000B1260008B1260008B1260008B126000804
:10206000B1260008B1260008B1260008B1260008F4
:10207000B1260008B1260008B1260008B1260008E4
:10208000B1260008B1260008B1260008B1260008D4
:10209000B1260008B1260008B1260008B1260008C4
:1020A000B1260008B1260008B1260008B1260008B4
:1020B000B1260008B1260008B1260008B1260008A4
:1020C000B1260008B1260008B1260008B126000894
:1020D000B1260008B1260008B1260008B126000884
:1020E000B1260008B1260008B1260008B126000874
:1020F000B1260008B1260008B1260008B126000864
:10210000B1260008B1260008B1260008B126000853
:10211000B1260008B1260008B1260008B126000843
:10212000B1260008B1260008B1260008B126000833
:10213000B1260008B1260008B1260008B126000823
:10214000B1260008B1260008B1260008B126000813
:10215000002307E0002200BF41F2040101328A425D
:10216000F9D101338342F5DB704710B50446E1B283
:10217000024800F092FA204610BD00BF003801402E
:1021800038B50546002401E0FFF7EFFF285D013474
:102190000028F9D138BD13B500F0A0F91C21494839
:1021A00000F040F90121474800F03CF945484FF460
:1021B000804100F037F943484FF4804100F032F994
:1021C000002207230221404800F08CF807213E48F6
:1021D00000F0C2F901213C4800F0C0F903210222BD
:1021E0003A484FF4007300F07DF8394B40F2712209
:1021F0001A600821374800F021FA0021354800F024
:1022000026FA0C21334800F02EFA0021314800F064
:1022100024FA00212F4800F02CFA2E4800F02FFA63
:102220000221294800F09AF92B48032102224FF499
:10223000304300F057F82848002101224FF4804332
:1022400000F050F8204800210122802300F04AF8D5
:102250000221002260231C4800F044F81F4800F0CF
:10226000B9F900242821022201231C48009401947A
:1022700000F07BF9194800F09DF9184800F09FF92B
:10228000164800F0A1F9154800F08FF9134800F046
:102290007EF90D48042100F061F9E1B20F4800F029
:1022A0007BF90E4800F07AF90221074800F059F94D
:1022B0000B48FFF765FF4FF47A700134FFF748FFD2
:1022C000EBE700BF18100240001001400008014079
:1022D0000838014000380140000C0140003800403F
:1022E000002700082DE9F047066800244568A44649
:1022F00043FA0CF717F0010F21D01FFA8CF8B8F150
:10230000070F02D82746B24603E0A4F12007BFB268
:10231000AA464FF00F0909FA07F92AEA090A07F154
:10232000020902FA09F911FA07F749EA070747EA29
:102330000A07B8F1080F28BF3D4638BF3E460CF1EA
:10234000010C0434BCF1100FA4B2D1D10660456079
:10235000BDE8F08706282ED8DFE800F0040A101642
:102360001C222800144B1B6813F0007FFAD0704722
:10237000114B1B6813F0006FFAD070470E4B1B68AF
:1023800013F0005FFAD070470B4B1B6813F4003F4B
:10239000FAD07047084B1B6813F0020FFAD0704751
:1023A000064B1B6813F0020FFAD07047044B1B68F2
:1023B00013F0020FFAD070470010024020100240C4
:1023C00024100240062826D8DFE800F004090E1386
:1023D000181A2000104B1A6842F0807214E00E4B5D
:1023E0001A6842F080620FE00B4B1A6842F080528C
:1023F0000AE0094B1A6842F4803205E0064B00E01F
:10240000064B1A6842F001021A607047044B1A68C2
:1024100042F001021A607047001002402010024092
:1024200024100240036841EA030303607047036815
:1024300041EA030303607047036823EA0103036072
:1024400070470000034B1A6822F0030240EA0202C0
:102450001A60704704100240034B1A6822F470128D
:1024600042EA80421A60704704100240034B1A6827
:1024700022F4803242EA00421A607047041002409F
:10248000034B1A6822F4003242EA40421A60704755
:1024900004100240034B1A6822F4404242EA8032A0
:1024A0001A60704704100240034B1A6822F4E0627D
:1024B00042EA00221A60704704100240024B1A6878
:1024C00022F0F0021A60704704100240024B1A68B2
:1024D00022F460521A6070470410024008B50420CC
:1024E000FFF770FF0420FFF735FF0020FFF7AAFF7A
:1024F0000320FFF767FF0320FFF72CFF0120FFF702
:10250000A1FFFFF7DBFF0020FFF7C4FF0020FFF76C
:10251000CBFFFFF7DBFF002000F0E8F80120FFF71A
:102520009BFF0120FFF7A2FF0020FFF7A9FF00207B
:10253000FFF748FF0020FFF70DFF0220FFF782FFA3
:10254000024B034A1360034A136008BD00366E0154
:1025500000000020040000200161704709040161AF
:102560007047C3684B40C360704710B5046841F0C2
:102570000401114304F4415C029A41EA0C0C4CEA58
:1025800003031343039A13430360002010BD036841
:1025900043F0400303607047C1607047836813F0E5
:1025A000010FFBD0C06880B27047036823F400536A
:1025B00003607047036843F4007303607047036867
:1025C00043F4807303607047436823F02003436043
:1025D00070470000144B10B5984218D0134B984226
:1025E00003D0134B98421ED108E012484FF480519B
:1025F000FFF71DFF0F484FF4805110E00E484FF4D5
:102600008041FFF714FF0C484FF4804107E00A486F
:102610004FF40041FFF70BFF07484FF40041BDE8BE
:102620001040FFF709BF10BD003C004000300140E2
:10263000003800400C10024010100240C368082906
:102640000CBF23F4805343F48053C3607047036985
:1026500023F440530B4303617047C36823F4C06302
:102660000B43C3607047C36823F00C030B43C36084
:102670007047436923F440730B4343617047C36859
:1026800043F40053C3607047C905C90D41607047EA
:10269000036813F0800FFBD0704770B504460D46F9
:1026A000FFF7F6FF20462946BDE87040FFF7ECBF74
:1026B000FEE77047094A0A4B03E052F8041B43F84F
:1026C000041B08498B42F8D302E0002243F8042B94
:1026D000054A9342F9D3FFF75EBD00BF0C270008FF
:1026E000000000200800002008000020034B1A68AA
:1026F00022F0070240EA02021A60704700200240FE
:0C27000054657374206D6F64650D0A0051
:08270C0000127A0000127A00AD
:04000005080026B514
:00000001FF
