:020000040800F2
:1020000000200020F9260008F7260008F526000821
:10201000F5260008F5260008F52600080000000057
:10202000000000000000000000000000F72600088B
:10203000F726000800000000F7260008F726000831
:10204000F5260008F5260008F5260008F526000804
:10205000F5260008F5260008F5260008F5260008F4
:10206000F5260008F5260008F5260008F5260008E4
:10207000F5260008F5260008F5260008F5260008D4
:10208000F5260008F5260008F5260008F5260008C4
:10209000F5260008F5260008F5260008F5260008B4
:1020A000F5260008F5260008F5260008F5260008A4
:1020B000F5260008F5260008F5260008F526000894
:1020C000F5260008F5260008F5260008F526000884
:1020D000F5260008F5260008F5260008F526000874
:1020E000F5260008F5260008F5260008F526000864
:1020F000F5260008F5260008F5260008F526000854
:10210000F5260008F5260008F5260008F526000843
:10211000F5260008F5260008F5260008F526000833
:10212000F5260008F5260008F5260008F526000823
:10213000F5260008F5260008F5260008F526000813
:10214000F5260008F5260008F5260008F526000803
:10215000002307E0002200BF41F2243101328A420D
:10216000F9D101338342F5DB70470128034802D1DE
:10217000402100F03DBA402100F03CBA001001407F
:10218000012804484FF4805101D100F031BA00F029
:1021900031BA00BF000C01402DE9F34100F0EAF92B
:1021A0001C21664800F08AF965484FF4804100F030
:1021B00085F9002207230221624800F0DFF8072199
:1021C000604800F015FA01215E4800F013FA022180
:1021D0005C4800F00FFA032102225B484FF43043C1
:1021E00000F0CCF80021012257484FF4804300F062
:1021F000C5F8002101228023524800F0BFF80221D7
:10220000002260234F4800F0B9F8504800F02AFA45
:1022100000240222012328214C480094019400F05C
:10222000F0F94A4800F00FFA484800F011FA474820
:1022300000F013FA454800F001FA444800F0F3F9C1
:102240000421404800F0D6F960213E4800F0D2F960
:102250002046FFF795FF2046FFF787FF20213948EA
:1022600000F0C6F91920FFF773FF0120FFF788FF80
:102270002D20FFF76DFF0120FFF777FF2D20FFF7DF
:1022800067FF2046FFF77CFF7820FFF761FF0621FC
:102290002E4800F0CDF9A0212C4800F0C9F97D208E
:1022A000FFF756FF2646FF2529E02848294600F07B
:1022B000BFF92648294600F0BBF9042F07DDFF2DA2
:1022C00002D0FF25002703E000252F4600E001375C
:1022D00008F10108B8F1400FE7D1502E07DDFF2DBE
:1022E00002D1FF3D2E4603E0FF25002600E0013627
:1022F00006200134FFF72CFFB4F5A06F03D04FF098
:1023000000084746D1E70120FFF73AFF41F2883045
:10231000FFF71EFF4FF4FA70FFF71AFF0020FFF7D8
:1023200024FF0848202100F065F90648022100F04A
:1023300064F94FF47A70FFF70BFFF6E718100240CC
:102340001C10024000100140000C01400038004009
:1023500010B50446E1B2024800F0C1F9204610BDB4
:102360000038014038B50546002401E0FFF7F0FFD2
:10237000285D01340028F9D138BD00BF2DE9F047B0
:10238000066800244568A44643FA0CF717F0010FCD
:1023900021D01FFA8CF8B8F1070F02D82746B246B1
:1023A00003E0A4F12007BFB2AA464FF00F0909FAD3
:1023B00007F92AEA090A07F1020902FA09F911FAEA
:1023C00007F749EA070747EA0A07B8F1080F28BFE5
:1023D0003D4638BF3E460CF1010C0434BCF1100FF1
:1023E000A4B2D1D106604560BDE8F08706282ED89A
:1023F000DFE800F0040A10161C222800144B1B68AA
:1024000013F0007FFAD07047114B1B6813F0006F78
:10241000FAD070470E4B1B6813F0005FFAD070477C
:102420000B4B1B6813F4003FFAD07047084B1B6836
:1024300013F0020FFAD07047064B1B6813F0020F1F
:10244000FAD07047044B1B6813F0020FFAD07047A4
:10245000001002402010024024100240062826D816
:10246000DFE800F004090E13181A2000104B1A6858
:1024700042F0807214E00E4B1A6842F080620FE066
:102480000B4B1A6842F080520AE0094B1A6842F47A
:10249000803205E0064B00E0064B1A6842F001026C
:1024A0001A607047044B1A6842F001021A607047C4
:1024B000001002402010024024100240036841EA4C
:1024C000030303607047036841EA03030360704736
:1024D000036823EA0103036070470000034B1A6896
:1024E00022F0030240EA02021A6070470410024020
:1024F000034B1A6822F4701242EA80421A60704755
:1025000004100240034B1A6822F4803242EA00426F
:102510001A60704704100240034B1A6822F400321C
:1025200042EA40421A60704704100240034B1A68A6
:1025300022F4404242EA80321A607047041002409E
:10254000034B1A6822F4E06242EA00221A607047E4
:1025500004100240024B1A6822F0F0021A60704721
:1025600004100240024B1A6822F460521A6070474D
:102570000410024008B50420FFF770FF0420FFF7A5
:1025800035FF0020FFF7AAFF0320FFF767FF0320B6
:10259000FFF72CFF0120FFF7A1FFFFF7DBFF002073
:1025A000FFF7C4FF0020FFF7CBFFFFF7DBFF0020A2
:1025B00000F0BEF80120FFF79BFF0120FFF7A2FF0C
:1025C0000020FFF7A9FF0020FFF748FF0020FFF7DA
:1025D0000DFF0220FFF782FF024B034A1360034AFC
:1025E000136008BD00366E010000002004000020CA
:1025F00001617047090401617047C3684B40C360C3
:10260000704710B5046841F00401114304F4415CC3
:10261000029A41EA0C0C4CEA03031343039A134356
:102620000360002010BD036843F04003036070475F
:10263000836813F0020FFBD0C1607047036823F476
:10264000005303607047036843F4007303607047EE
:10265000036843F4807303607047436823F02003EA
:1026600043607047144B10B5984218D0134B9842F2
:1026700003D0134B98421ED108E012484FF480510A
:10268000FFF721FF0F484FF4805110E00E484FF440
:102690008041FFF718FF0C484FF4804107E00A48DB
:1026A0004FF40041FFF70FFF07484FF40041BDE82A
:1026B0001040FFF70DBF10BD003C0040003001404E
:1026C000003800400C10024010100240C905C90D2E
:1026D00041607047036813F0800FFBD0704770B5FE
:1026E00004460D46FFF7F6FF20462946BDE8704038
:1026F000FFF7ECBFFEE77047094A0A4B03E052F8C8
:10270000041B43F8041B08498B42F8D302E0002263
:1027100043F8042B054A9342F9D3FFF73DBD00BFB0
:1027200044270008000000200800002008000020C6
:10273000034B1A6822F0070240EA02021A6070474F
:042740000020024033
:0827440000127A0000127A0075
:04000005080026F9D0
:00000001FF
