:020000040800F2
:10000000004001205907000857070008550700085D
:1000100055070008550700085507000800000000B4
:10002000000000000000000000000000570700086A
:10003000570700080000000057070008570700088E
:100040005507000855070008550700085507000820
:100050005507000855070008550700085507000810
:100060005507000855070008550700085507000800
:1000700055070008550700085507000855070008F0
:1000800055070008550700085507000855070008E0
:1000900055070008550700085507000855070008D0
:1000A00055070008550700085507000855070008C0
:1000B00055070008550700085507000855070008B0
:1000C00055070008550700085507000855070008A0
:1000D00055070008F702000855070008AD0300089F
:1000E0005507000855070008550700085507000880
:1000F0005507000855070008550700085507000870
:10010000550700085507000855070008550700085F
:10011000550700085507000855070008550700084F
:10012000550700085507000855070008550700083F
:10013000550700085507000855070008550700082F
:10014000550700085507000855070008550700081F
:10015000002307E0002200BF41F25C2101328A4205
:10016000F9D101338342F5DB704710B500F05EFA38
:100170001C214E4800F008FA4C484FF4804100F032
:1001800003FA4B484FF4802100F0FEF9052147485F
:1001900000F0FAF946484FF4804100F0F5F90022EA
:1001A00017230221434800F04FF90721414800F08E
:1001B0007BFA01213F4800F079FA10213D4800F018
:1001C00073FA252000F0E4FA032102223A484FF4A2
:1001D000007300F039F90122002137484FF48063A1
:1001E00000F032F9354BD0241C600821344800F06F
:1001F00064FA0021324800F069FA31480C2100F01D
:1002000071FA00212E4800F067FA00212C4800F016
:100210006FFA2B4800F099FA294800F08CFA284828
:1002200000F08EFA264800F069FA272000F0B0FAB4
:100230002048002101224FF4006300F005F902225A
:100240001C4803214FF4806300F0FEF81D4B1E484C
:100250001C60082100F031FA1B48002100F036FA3A
:1002600019480C2100F03EFA1748002100F034FA3A
:100270000021154800F03CFA134800F066FA1248D5
:1002800000F059FA104800F05BFA0F4800F036FA17
:100290000848072100F00AFA0648022100F009FA8E
:1002A0004FF47A70FFF754FFF6E700BF18100240D2
:1002B0001C100240001001400008014008380140B5
:1002C00000380140084800400048004010B504468E
:1002D000E1B2024800F024FA204610BD0038014087
:1002E00038B50546002401E0FFF7F0FF285D013432
:1002F0000028F9D138BD38B5264B1B6813F0200F04
:1003000021D02548036813F0200F1CD0234C25680A
:1003100000F0FDF92B1918712368E41823790D2BCF
:1003200008D11F48012100F0C4F91E4B1A6842F0A1
:1003300080021A60194B1A68B2F5806F01DA013237
:1003400000E000221A60134B1B6813F0800F1FD0CF
:10035000114B1B6813F0800F1AD000240BE005F539
:10036000806511480221043500F0A3F9295D0A488F
:1003700000F0D6F90134094DD5F838349C42EEDB53
:100380000023C5F83834034B1A6822F080021A6043
:1003900038BD00BF0C380140003801400800002083
:1003A000001001400C48004000080140214B70B58E
:1003B0001B6813F0200F1FD01F4C236813F0200F71
:1003C0001AD004211D4D1E4800F073F92046D5F8BF
:1003D000386400F09CF9731983F80404D5F83834B4
:1003E000312B01DC013300E00023C5F83834154B14
:1003F0001A6842F080021A600E4B1B6813F0800FDF
:1004000017D00D4B1B6813F0800F12D0002405E0AD
:100410000433195D084800F083F90134074B1A686A
:100420009442F5DB00221A60024B1A6822F0800227
:100430001A6070BD0C4800400048004008000020D1
:10044000001001400C3801402DE9F04706680024F7
:100450004568A44643FA0CF717F0010F21D01FFAA4
:100460008CF8B8F1070F02D82746B24603E0A4F192
:100470002007BFB2AA464FF00F0909FA07F92AEA86
:10048000090A07F1020902FA09F911FA07F749EA1C
:10049000070747EA0A07B8F1080F28BF3D4638BFEB
:1004A0003E460CF1010C0434BCF1100FA4B2D1D1C2
:1004B00006604560BDE8F08706282ED8DFE800F02A
:1004C000040A10161C222800144B1B6813F0007F2E
:1004D000FAD07047114B1B6813F0006FFAD07047C9
:1004E0000E4B1B6813F0005FFAD070470B4B1B6874
:1004F00013F4003FFAD07047084B1B6813F0020F4B
:10050000FAD07047064B1B6813F0020FFAD0704701
:10051000044B1B6813F0020FFAD070470010024022
:100520002010024024100240062826D8DFE800F000
:1005300004090E13181A2000104B1A6842F080723A
:1005400014E00E4B1A6842F080620FE00B4B1A6801
:1005500042F080520AE0094B1A6842F4803205E00A
:10056000064B00E0064B1A6842F001021A60704721
:10057000044B1A6842F001021A60704700100240F2
:100580002010024024100240036841EA0303036084
:1005900070470000034B1A6822F0030240EA02028F
:1005A0001A60704704100240034B1A6822F470125C
:1005B00042EA80421A60704704100240034B1A68F6
:1005C00022F4803242EA00421A607047041002406E
:1005D000034B1A6822F4003242EA40421A60704724
:1005E00004100240034B1A6822F4404242EA80326F
:1005F0001A60704704100240034B1A6822F4E0624C
:1006000042EA00221A60704704100240024B1A6846
:1006100022F0F0021A60704704100240024B1A6880
:1006200022F460521A6070470410024008B504209A
:10063000FFF77AFF0420FFF73FFF0020FFF7AAFF34
:100640000320FFF771FF0320FFF736FF0120FFF7BC
:10065000A1FFFFF7DBFF0020FFF7C4FF0020FFF73B
:10066000CBFFFFF7DBFF002000F0A0F80120FFF731
:100670009BFF0120FFF7A2FF0020FFF7A9FF00204A
:10068000FFF752FF0020FFF717FF0220FFF782FF5E
:10069000024B034A1360034A136008BD00366E0123
:1006A000000000200400002001617047090401617E
:1006B0007047C3684B40C3607047C36808290CBFCC
:1006C00023F4805343F48053C3607047036923F4D9
:1006D00040530B4303617047C36823F4C0630B436B
:1006E000C3607047C36823F00C030B43C3607047BB
:1006F000436923F440730B4343617047C36843F479
:100700000053C3607047C905C90D41607047406818
:10071000C005C00D7047036813F0800FFBD0704711
:1007200070B504460D46FFF7F6FF20462946BDE8A2
:100730007040FFF7E8BFC36843F02003C360704711
:10074000C36843F08003C3607047436923F001032B
:1007500043617047FEE77047094A0A4B03E052F8CD
:10076000041B43F8041B08498B42F8D302E0002223
:1007700043F8042B054A9342F9D3FFF7F6BC00BFB8
:10078000C0070008000000200800002044040020EA
:10079000054B012203EB501300F01F0012FA00F08A
:1007A0009B001860704700BF40380038034B1A6840
:1007B00022F0070240EA02021A607047002002405D
:0807C00000127A0000127A0019
:04000005080007598F
:00000001FF
