S00C0000756172742E737265635C
S315080000000040012065080008630800086108000828
S31508000010610800086108000861080008000000007F
S31508000020000000000000000000000000630800084F
S315080000306308000800000000630800086308000859
S3150800004061080008610800086108000861080008DE
S3150800005061080008610800086108000861080008CE
S3150800006061080008610800086108000861080008BE
S3150800007061080008610800088D040008D504000816
S31508000080610800086108000861080008610800089E
S31508000090610800086108000861080008610800088E
S315080000A0610800086108000861080008610800087E
S315080000B0610800086108000861080008610800086E
S315080000C0610800086108000861080008610800085E
S315080000D0610800083F0300086108000811040008C9
S315080000E0610800086108000861080008610800083E
S315080000F0610800086108000861080008610800082E
S31508000100610800086108000861080008610800081D
S31508000110610800086108000861080008610800080D
S3150800012061080008610800086108000861080008FD
S3150800013061080008610800086108000861080008ED
S3150800014061080008610800086108000861080008DD
S31508000150002307E0002200BF41F25C2101328A42F7
S31508000160F9D101338342F5DB704710B500F0C8FAC0
S315080001701C215E4800F072FA5C484FF4804100F09A
S315080001806DFA5B484FF4802100F068FA052157485C
S3150800019000F064FA56484FF4804100F05FFA0022F6
S315080001A041F217030221534800F0B8F907215148D4
S315080001B000F0F6FA01214F4800F0F4FA41F2100176
S315080001C04C4800F0EDFA252000F068FB272000F0E7
S315080001D065FB0321022248484FF4007300F09EF99C
S315080001E00122002144484FF4806300F097F9434BFD
S315080001F0D0241C600821424800F0DBFA0021404860
S3150800020000F0E0FA3E480C2100F0E8FA00213C48EC
S3150800021000F0DEFA00213A4800F0E6FA384800F025
S315080002201AFB374800F00DFB354800F00FFB344841
S3150800023000F0E0FA334B2F481A684FF4805142F029
S3150800024010021A6000F0ACFA0221012229484FF484
S31508000250805300F063F90321022226484FF4806395
S3150800026000F05CF90021012222484FF4006300F0F7
S3150800027055F90021022224484FF4807300F04EF904
S315080002800222032120484FF4007300F047F91F4B60
S3150800029008211C601E4800F08CFA00211C4800F05A
S315080002A091FA0C211A4800F099FA0021184800F032
S315080002B08FFA0021164800F097FA154800F0CBFA95
S315080002C0134800F0BEFA124800F0C0FA104800F0D1
S315080002D091FA0848072100F065FA0648022100F05D
S315080002E064FA4FF47A70FFF733FFF6E71810024006
S315080002F01C10024000100140000801400838014067
S315080003000038014004000140000C01400848004044
S315080003100048004010B50446E1B2024800F07CFAF5
S31508000320204610BD0038014038B50546002401E0D6
S31508000330FFF7F0FF285D01340028F9D138BD2E4BB0
S3150800034070B51B6813F0200F2FD02C4E336813F0AE
S31508000350200F2AD001212A4800F027FA304600F05B
S3150800036052FAC5B22946304600F056FA0D2D254CEC
S3150800037011D10A21304600F04FFA234B1A6842F091
S3150800038080021A602368002B0FDD1A19D1782429F8
S315080003900BD0157105E023681A19B3F5806F15712E
S315080003A001DA013300E000232360134B1B6813F0C6
S315080003B0800F1FD0114B1B6813F0800F1AD0002432
S315080003C00BE005F5806511480221043500F0EDF9CA
S315080003D0295D0A4800F020FA01340A4DD5F8383468
S315080003E09C42EEDB0023C5F83834034B1A6822F02A
S315080003F080021A6070BD00BF0C3801400038014009
S3150800040000100140080000200C4800400008014088
S31508000410194B10B51B6813F0200F0FD0174C236823
S3150800042013F0200F0AD00421154800F0BEF9204623
S3150800043000F0E9F9C1B2134800F0EEF90E4B1B685B
S3150800044013F0800F17D00D4B1B6813F0800F12D0D6
S31508000450002405E00433195D084800F0DDF901348D
S31508000460094B1A689442F5DB00221A60024B1A6897
S3150800047022F080021A6010BD0C4800400048004077
S315080004800010014000380140080000200D4B10B54F
S315080004901B6813F4005F08D00B4B1A6842F400324D
S315080004A01A600A4B0122C3F83C240421054800F0CF
S315080004B065F9074800F0BBF902480421BDE8104079
S315080004C000F065B900000240040002400800002060
S315080004D0003801400D4B10B51B6813F0007F08D09B
S315080004E00B4B1A6842F400321A600A4B0122C3F811
S315080004F040240421054800F041F9074800F09CF91A
S3150800050002480421BDE8104000F041B9000002404D
S315080005100400024008000020003801402DE9F04799
S31508000520066800244568A44643FA0CF717F0010F3D
S3150800053021D01FFA8CF8B8F1070F02D82746B24621
S3150800054003E0A4F12007BFB2AA464FF00F0909FA43
S3150800055007F92AEA090A07F1020902FA09F911FA5A
S3150800056007F749EA070747EA0A07B8F1080F28BF55
S315080005703D4638BF3E460CF1010C0434BCF1100F61
S31508000580A4B2D1D106604560BDE8F08706282ED80A
S31508000590DFE800F0040A10161C222800144B1B681A
S315080005A013F0007FFAD07047114B1B6813F0006FE9
S315080005B0FAD070470E4B1B6813F0005FFAD07047ED
S315080005C00B4B1B6813F4003FFAD07047084B1B68A7
S315080005D013F0020FFAD07047064B1B6813F0020F90
S315080005E0FAD07047044B1B6813F0020FFAD0704715
S315080005F0001002402010024024100240062826D887
S31508000600DFE800F004090E13181A2000104B1A68C8
S3150800061042F0807214E00E4B1A6842F080620FE0D6
S315080006200B4B1A6842F080520AE0094B1A6842F4EA
S31508000630803205E0064B00E0064B1A6842F00102DC
S315080006401A607047044B1A6842F001021A60704734
S31508000650001002402010024024100240036841EABC
S315080006600303036070470000034B1A6822F0030275
S3150800067040EA02021A60704704100240034B1A68E7
S3150800068022F4701242EA80421A607047041002404F
S31508000690034B1A6822F4803242EA00421A60704715
S315080006A004100240034B1A6822F4003242EA404220
S315080006B01A60704704100240034B1A6822F440423D
S315080006C042EA80321A60704704100240034B1A68E7
S315080006D022F4E06242EA00221A60704704100240DF
S315080006E0024B1A6822F0F0021A60704704100240A2
S315080006F0024B1A6822F460521A60704704100240CE
S3150800070008B50420FFF77AFF0420FFF73FFF002013
S31508000710FFF7AAFF0320FFF771FF0320FFF736FF55
S315080007200120FFF7A1FFFFF7DBFF0020FFF7C4FF5B
S315080007300020FFF7CBFFFFF7DBFF002000F0BCF837
S315080007400120FFF79BFF0120FFF7A2FF0020FFF71C
S31508000750A9FF0020FFF752FF0020FFF717FF02202E
S31508000760FFF782FF024B034A1360034A136008BD72
S3150800077000366E0100000020040000201423013911
S3150800078059430830435823F0020343507047142353
S31508000790013959430830435823F001034350704741
S315080007A001617047090401617047C3684B40C36023
S315080007B07047C36808290CBF23F4805343F4805359
S315080007C0C3607047036923F440530B4303617047C2
S315080007D0C36823F4C0630B43C3607047C36823F040
S315080007E00C030B43C3607047436923F440730B4300
S315080007F043617047C36843F40053C3607047C90533
S31508000800C90D416070474068C005C00D7047036850
S3150800081013F0800FFBD0704770B504460D46FFF7FE
S31508000820F6FF20462946BDE87040FFF7E8BF436952
S3150800083023F0400343617047436923F08003436113
S315080008407047C36843F02003C3607047C36843F02A
S315080008508003C3607047436923F00103436170470F
S31508000860FEE77047094A0A4B03E052F8041B43F8AF
S31508000870041B08498B42F8D302E0002243F8042BF4
S31508000880054A9342F9D3FFF770BC00BFCC080008AD
S31508000890000000200800002054040020054B012217
S315080008A003EB501300F01F0012FA00F09B001860CB
S315080008B0704700BF40380038034B1A6822F0070219
S311080008C040EA02021A607047002002405D
S30D080008CC00127A0000127A00FE
S7050800086585
